{
  "contractName": "Helper",
  "abi": [
    {
      "constant": true,
      "inputs": [],
      "name": "getLendingPool",
      "outputs": [
        {
          "name": "lendingpool",
          "type": "address"
        }
      ],
      "payable": false,
      "stateMutability": "pure",
      "type": "function"
    },
    {
      "constant": true,
      "inputs": [],
      "name": "getPoolBase",
      "outputs": [
        {
          "name": "poolToken",
          "type": "address"
        }
      ],
      "payable": false,
      "stateMutability": "pure",
      "type": "function"
    }
  ],
  "bytecode": "0x608060405234801561001057600080fd5b50610163806100206000396000f3fe60806040526004361061004c576000357c0100000000000000000000000000000000000000000000000000000000900463ffffffff1680630261bf8b14610051578063ec654f30146100a8575b600080fd5b34801561005d57600080fd5b506100666100ff565b604051808273ffffffffffffffffffffffffffffffffffffffff1673ffffffffffffffffffffffffffffffffffffffff16815260200191505060405180910390f35b3480156100b457600080fd5b506100bd61011b565b604051808273ffffffffffffffffffffffffffffffffffffffff1673ffffffffffffffffffffffffffffffffffffffff16815260200191505060405180910390f35b600073398ec7346dcd622edc5ae82352f02be94c62d119905090565b60007329fe7d60ddf151e5b52e5fab4f1325da6b2bd95890509056fea165627a7a723058200d6a79eb703469488c681ce60350ce88094f1f02db8b6860554aeaeb9e3801bb0029",
  "source": "pragma solidity ^0.5.0;\r\n\r\n\r\n\r\ncontract LendingPoolInterface {\r\n     // Deposit \r\n     function deposit(address _reserve, uint256 _amount, uint16 _referralCode) external payable;\r\n     \r\n     function getReserveData(address _reserve) external view \r\n            returns (\r\n            uint256 totalLiquidity,\r\n            uint256 availableLiquidity,\r\n            uint256 totalBorrowsStable,\r\n            uint256 totalBorrowsVariable,\r\n            uint256 liquidityRate,\r\n            uint256 variableBorrowRate,\r\n            uint256 stableBorrowRate,\r\n            uint256 averageStableBorrowRate,\r\n            uint256 utilizationRate,\r\n            uint256 liquidityIndex,\r\n            uint256 variableBorrowIndex,\r\n            address aTokenAddress,\r\n            uint40 lastUpdateTimestamp\r\n            );\r\n}\r\n\r\ncontract ATokenInterface {\r\n     function redirectInterestStream(address _to) external;\r\n}\r\n\r\ncontract DSMath {\r\n\r\n    function add(uint x, uint y) internal pure returns (uint z) {\r\n        require((z = x + y) >= x, \"math-not-safe\");\r\n    }\r\n\r\n    function sub(uint x, uint y) internal pure returns (uint z) {\r\n        z = x - y <= x ? x - y : 0;\r\n    }\r\n\r\n    function mul(uint x, uint y) internal pure returns (uint z) {\r\n        require(y == 0 || (z = x * y) / y == x, \"math-not-safe\");\r\n    }\r\n\r\n    uint constant WAD = 10 ** 18;\r\n\r\n    function wmul(uint x, uint y) internal pure returns (uint z) {\r\n        z = add(mul(x, y), WAD / 2) / WAD;\r\n    }\r\n\r\n    function wdiv(uint x, uint y) internal pure returns (uint z) {\r\n        z = add(mul(x, WAD), y / 2) / y;\r\n    }\r\n\r\n}\r\n\r\n\r\ncontract Helper is DSMath {\r\n     /**\r\n     * @dev get Lending Pool address\r\n     */\r\n    function getLendingPool() public pure returns (address lendingpool) {\r\n        lendingpool = 0x398eC7346DcD622eDc5ae82352F02bE94C62d119;\r\n    }\r\n     /**\r\n     * @dev get pool contract address \r\n     */\r\n    function getPoolBase() public pure returns (address poolToken) {\r\n        poolToken = 0x29fe7D60DdF151E5b52e5FAB4f1325da6b2bD958;\r\n    }\r\n}\r\n\r\n\r\ninterface IERC20 {\r\n    /**\r\n     * @dev Returns the amount of tokens in existence.\r\n     */\r\n    function totalSupply() external view returns (uint256);\r\n\r\n    /**\r\n     * @dev Returns the amount of tokens owned by `account`.\r\n     */\r\n    function balanceOf(address account) external view returns (uint256);\r\n\r\n    /**\r\n     * @dev Moves `amount` tokens from the caller's account to `recipient`.\r\n     *\r\n     * Returns a boolean value indicating whether the operation succeeded.\r\n     *\r\n     * Emits a {Transfer} event.\r\n     */\r\n    function transfer(address recipient, uint256 amount) external returns (bool);\r\n\r\n    /**\r\n     * @dev Returns the remaining number of tokens that `spender` will be\r\n     * allowed to spend on behalf of `owner` through {transferFrom}. This is\r\n     * zero by default.\r\n     *\r\n     * This value changes when {approve} or {transferFrom} are called.\r\n     */\r\n    function allowance(address owner, address spender) external view returns (uint256);\r\n\r\n    /**\r\n     * @dev Sets `amount` as the allowance of `spender` over the caller's tokens.\r\n     *\r\n     * Returns a boolean value indicating whether the operation succeeded.\r\n     *\r\n     * IMPORTANT: Beware that changing an allowance with this method brings the risk\r\n     * that someone may use both the old and the new allowance by unfortunate\r\n     * transaction ordering. One possible solution to mitigate this race\r\n     * condition is to first reduce the spender's allowance to 0 and set the\r\n     * desired value afterwards:\r\n     * https://github.com/ethereum/EIPs/issues/20#issuecomment-263524729\r\n     *\r\n     * Emits an {Approval} event.\r\n     */\r\n    function approve(address spender, uint amount) external returns (bool);\r\n\r\n    /**\r\n     * @dev Moves `amount` tokens from `sender` to `recipient` using the\r\n     * allowance mechanism. `amount` is then deducted from the caller's\r\n     * allowance.\r\n     *\r\n     * Returns a boolean value indicating whether the operation succeeded.\r\n     *\r\n     * Emits a {Transfer} event.\r\n     */\r\n    function transferFrom(address sender, address recipient, uint256 amount) external returns (bool);\r\n\r\n    /**\r\n     * @dev Emitted when `value` tokens are moved from one account (`from`) to\r\n     * another (`to`).\r\n     *\r\n     * Note that `value` may be zero.\r\n     */\r\n    event Transfer(address indexed from, address indexed to, uint256 value);\r\n\r\n    /**\r\n     * @dev Emitted when the allowance of a `spender` for an `owner` is set by\r\n     * a call to {approve}. `value` is the new allowance.\r\n     */\r\n    event Approval(address indexed owner, address indexed spender, uint256 value);\r\n}\r\n\r\ncontract AavePool is Helper {\r\n    \r\n     /**\r\n     * @dev Pool Together Pool Entering Functionality through Redirecting Interest from Aave\r\n     * @param token - token to deposit\r\n     * @param depositAmt - amount to deposit on AAVE\r\n     */\r\n    function addPool(\r\n        address token,\r\n        uint depositAmt\r\n        ) public\r\n        {\r\n            // Depositing Token on Aave to get AToken\r\n            LendingPoolInterface(getLendingPool()).deposit.value(0)(token, depositAmt, 0);\r\n            // Fetching the ATOKEN Address from the reserve address\r\n            (, , , , , , , , , , , address atoken,) = LendingPoolInterface(getLendingPool()).getReserveData(msg.sender);\r\n            // Redirtecting Interest to Enter into a Pool\r\n            // Right Now Using Pool Dai Address will have to add condition based on the reserve token whether to redirect token to Pool Dai or Pool Usdc\r\n            ATokenInterface(atoken).redirectInterestStream(getPoolBase());\r\n        }\r\n        \r\n}\r\n\r\n",
  "sourcePath": "F:/casino-dapp/src/contracts/AavePool.sol",
  "compiler": {
    "name": "solc",
    "version": "0.5.0+commit.1d4f565a.Emscripten.clang"
  },
  "schemaVersion": "3.0.2",
  "updatedAt": "2020-05-12T16:20:12.036Z",
  "devdoc": {
    "methods": {
      "getLendingPool()": {
        "details": "get Lending Pool address\r"
      },
      "getPoolBase()": {
        "details": "get pool contract address \r"
      }
    }
  },
  "userdoc": {
    "methods": {}
  }
}